{
  "hash": "6e6a867379edd4caf6f7db30a211bc149efac260c3844c5ad00d38924c240db8",
  "version": 3,
  "inputs": [
    {
      "prevTxId": "010940e6dbbd57ee226dd6eea855eb31fa6ced683dda193ae1347c1debf59c63",
      "outputIndex": 0,
      "sequenceNumber": 4294967295,
      "script": "483045022100dff4f4edb6a9120a006faf501c7f9fc738e4b100deb0b239bac4fcc0e9c198c9022011e003b34f2d64ddbe294983872dc0be034d050dafdfa02e327799b11661c05b0121023f46dab5842361d1606f1939b9a793bd505c630c9f7fd96930a11fbbf40593d8",
      "scriptString": "72 0x3045022100dff4f4edb6a9120a006faf501c7f9fc738e4b100deb0b239bac4fcc0e9c198c9022011e003b34f2d64ddbe294983872dc0be034d050dafdfa02e327799b11661c05b01 33 0x023f46dab5842361d1606f1939b9a793bd505c630c9f7fd96930a11fbbf40593d8",
      "output": {
        "satoshis": 12436696936,
        "script": "76a91464b28383cc35bbd03c1ed9617707098152fdbe0688ac"
      }
    }
  ],
  "outputs": [
    {
      "satoshis": 20100,
      "script": "76a914009c0f2f82419b3eae635a74c13bdf9bf68d73a588ac"
    },
    {
      "satoshis": 12436676610,
      "script": "76a91464b28383cc35bbd03c1ed9617707098152fdbe0688ac"
    }
  ],
  "nLockTime": 0,
  "changeScript": "OP_DUP OP_HASH160 20 0x64b28383cc35bbd03c1ed9617707098152fdbe06 OP_EQUALVERIFY OP_CHECKSIG",
  "changeIndex": 1,
  "fee": 226,
  "serialized": "0300000001639cf5eb1d7c34e13a19da3d68ed6cfa31eb55a8eed66d22ee57bddbe6400901000000006b483045022100dff4f4edb6a9120a006faf501c7f9fc738e4b100deb0b239bac4fcc0e9c198c9022011e003b34f2d64ddbe294983872dc0be034d050dafdfa02e327799b11661c05b0121023f46dab5842361d1606f1939b9a793bd505c630c9f7fd96930a11fbbf40593d8ffffffff02844e0000000000001976a914009c0f2f82419b3eae635a74c13bdf9bf68d73a588ac02a048e5020000001976a91464b28383cc35bbd03c1ed9617707098152fdbe0688ac00000000"
}
